{
  "contractName": "AucSters",
  "abi": [
    {
      "constant": true,
      "inputs": [],
      "name": "totalSupply",
      "outputs": [
        {
          "name": "",
          "type": "uint256"
        }
      ],
      "payable": false,
      "stateMutability": "view",
      "type": "function",
      "signature": "0x18160ddd"
    },
    {
      "inputs": [
        {
          "name": "_initialSupply",
          "type": "uint256"
        }
      ],
      "payable": false,
      "stateMutability": "nonpayable",
      "type": "constructor",
      "signature": "constructor"
    }
  ],
  "bytecode": "0x608060405234801561001057600080fd5b506040516020806100f58339810180604052602081101561003057600080fd5b81019080805190602001909291905050508060008190555050609e806100576000396000f3fe608060405260043610603f576000357c0100000000000000000000000000000000000000000000000000000000900463ffffffff16806318160ddd146044575b600080fd5b348015604f57600080fd5b506056606c565b6040518082815260200191505060405180910390f35b6000548156fea165627a7a72305820ac90e1bb051609d3966d3f33fce022665f0d355a3f516380c39dda34c36d49bb0029",
  "source": "// AucSters : ERC20 token and a cryptoCurrency governing the money transfer in auction\n \npragma solidity >=0.4.21 <0.6.0;\n\ncontract AucSters {\n    uint256 public totalSupply;\n\n    constructor(uint256 _initialSupply) public {\n        totalSupply = _initialSupply;\n    }\n}",
  "sourcePath": "/Users/dibs/Desktop/consensys_doc/proyecto-contract-design-AucAuc/contracts/AucSters.sol",
  "compiler": {
    "name": "solc",
    "version": "0.5.0+commit.1d4f565a.Emscripten.clang"
  },
  "schemaVersion": "3.0.1",
  "updatedAt": "2019-01-18T00:02:56.515Z",
  "devdoc": {
    "methods": {}
  },
  "userdoc": {
    "methods": {}
  }
}