{
  "contractName": "AucSters",
  "abi": [
    {
      "constant": true,
      "inputs": [],
      "name": "totalSupply",
      "outputs": [
        {
          "name": "",
          "type": "uint256"
        }
      ],
      "payable": false,
      "stateMutability": "view",
      "type": "function",
      "signature": "0x18160ddd"
    },
    {
      "inputs": [],
      "payable": false,
      "stateMutability": "nonpayable",
      "type": "constructor",
      "signature": "constructor"
    }
  ],
  "bytecode": "0x608060405234801561001057600080fd5b50620f4240600081905550609e806100296000396000f3fe608060405260043610603f576000357c0100000000000000000000000000000000000000000000000000000000900463ffffffff16806318160ddd146044575b600080fd5b348015604f57600080fd5b506056606c565b6040518082815260200191505060405180910390f35b6000548156fea165627a7a723058201639800d4cc47f26e38e40af9669fc6bb3879792490295ff33e146edd72684680029",
  "source": "// AucSters : ERC20 token and a cryptoCurrency governing the money transfer in auction\n \npragma solidity >=0.4.21 <0.6.0;\n\ncontract AucSters {\n    //  Constructor\n    //  Set the total number of tokens\n    //  read the total number of tokens\n    uint256 public totalSupply;\n\n    constructor() public {\n        totalSupply = 1000000;\n    }\n}",
  "sourcePath": "/Users/dibs/Desktop/consensys_doc/proyecto-contract-design-AucAuc/contracts/AucSters.sol",
  "compiler": {
    "name": "solc",
    "version": "0.5.0+commit.1d4f565a.Emscripten.clang"
  },
  "schemaVersion": "3.0.1",
  "updatedAt": "2019-01-17T23:53:48.427Z",
  "devdoc": {
    "methods": {}
  },
  "userdoc": {
    "methods": {}
  }
}