{
  "contractName": "BiddingContract",
  "abi": [
    {
      "constant": true,
      "inputs": [
        {
          "name": "",
          "type": "address"
        }
      ],
      "name": "productCount",
      "outputs": [
        {
          "name": "",
          "type": "uint256"
        }
      ],
      "payable": false,
      "stateMutability": "view",
      "type": "function",
      "signature": "0x15424f01"
    },
    {
      "constant": true,
      "inputs": [
        {
          "name": "",
          "type": "uint256"
        }
      ],
      "name": "productIdToOwner",
      "outputs": [
        {
          "name": "",
          "type": "address"
        }
      ],
      "payable": false,
      "stateMutability": "view",
      "type": "function",
      "signature": "0x28b5ad4b"
    },
    {
      "constant": true,
      "inputs": [
        {
          "name": "",
          "type": "uint256"
        }
      ],
      "name": "regSellers",
      "outputs": [
        {
          "name": "",
          "type": "address"
        }
      ],
      "payable": false,
      "stateMutability": "view",
      "type": "function",
      "signature": "0x3b1d25d1"
    },
    {
      "constant": true,
      "inputs": [],
      "name": "tokensSold",
      "outputs": [
        {
          "name": "",
          "type": "uint256"
        }
      ],
      "payable": false,
      "stateMutability": "view",
      "type": "function",
      "signature": "0x518ab2a8"
    },
    {
      "constant": true,
      "inputs": [],
      "name": "tokenContract",
      "outputs": [
        {
          "name": "",
          "type": "address"
        }
      ],
      "payable": false,
      "stateMutability": "view",
      "type": "function",
      "signature": "0x55a373d6"
    },
    {
      "constant": true,
      "inputs": [],
      "name": "tokenPrice",
      "outputs": [
        {
          "name": "",
          "type": "uint256"
        }
      ],
      "payable": false,
      "stateMutability": "view",
      "type": "function",
      "signature": "0x7ff9b596"
    },
    {
      "constant": true,
      "inputs": [
        {
          "name": "",
          "type": "address"
        },
        {
          "name": "",
          "type": "uint256"
        }
      ],
      "name": "latestBidStore",
      "outputs": [
        {
          "name": "",
          "type": "uint256"
        }
      ],
      "payable": false,
      "stateMutability": "view",
      "type": "function",
      "signature": "0x8a38ffa2"
    },
    {
      "constant": true,
      "inputs": [
        {
          "name": "",
          "type": "uint256"
        }
      ],
      "name": "bidders",
      "outputs": [
        {
          "name": "",
          "type": "address"
        }
      ],
      "payable": false,
      "stateMutability": "view",
      "type": "function",
      "signature": "0xcff29dfd"
    },
    {
      "inputs": [
        {
          "name": "_tokenContract",
          "type": "address"
        },
        {
          "name": "_tokenPrice",
          "type": "uint256"
        }
      ],
      "payable": false,
      "stateMutability": "nonpayable",
      "type": "constructor",
      "signature": "constructor"
    },
    {
      "anonymous": false,
      "inputs": [
        {
          "indexed": true,
          "name": "_customer",
          "type": "address"
        },
        {
          "indexed": false,
          "name": "_numberOfTokens",
          "type": "uint256"
        }
      ],
      "name": "TokenSold",
      "type": "event",
      "signature": "0xfe2ff4cf36ff7d2c2b06eb960897ee0d76d9c3e58da12feb7b93e86b226dd344"
    },
    {
      "anonymous": false,
      "inputs": [
        {
          "indexed": true,
          "name": "_productId",
          "type": "uint256"
        },
        {
          "indexed": true,
          "name": "_customer",
          "type": "address"
        },
        {
          "indexed": false,
          "name": "_numberOfTokens",
          "type": "uint256"
        }
      ],
      "name": "ProductSold",
      "type": "event",
      "signature": "0x31bb31d00bedecd9cb0a6f27507b6f5b268f069f24168aa35ae70c21c2e8d5ca"
    },
    {
      "anonymous": false,
      "inputs": [
        {
          "indexed": true,
          "name": "_productId",
          "type": "uint256"
        },
        {
          "indexed": true,
          "name": "_bidder",
          "type": "address"
        },
        {
          "indexed": false,
          "name": "_numberOfTokens",
          "type": "uint256"
        }
      ],
      "name": "Bidding",
      "type": "event",
      "signature": "0x25503b4fa67c48e494bd01a58de80d35d064c1797891f4af928672a8f5ee0634"
    },
    {
      "anonymous": false,
      "inputs": [
        {
          "indexed": true,
          "name": "_sellerId",
          "type": "address"
        },
        {
          "indexed": true,
          "name": "_productId",
          "type": "uint256"
        },
        {
          "indexed": false,
          "name": "productName",
          "type": "string"
        },
        {
          "indexed": false,
          "name": "bidStartTime",
          "type": "uint256"
        },
        {
          "indexed": true,
          "name": "isAvailable",
          "type": "bool"
        },
        {
          "indexed": false,
          "name": "bidSession",
          "type": "uint256"
        }
      ],
      "name": "NewProductAdded",
      "type": "event",
      "signature": "0x4de4150ffe329f5e6570a7a336587b4d706a4cf73edc12ab959139413af5a8b5"
    },
    {
      "constant": false,
      "inputs": [
        {
          "name": "_numberOfTokens",
          "type": "uint256"
        }
      ],
      "name": "buyTokens",
      "outputs": [],
      "payable": true,
      "stateMutability": "payable",
      "type": "function",
      "signature": "0x3610724e"
    },
    {
      "constant": false,
      "inputs": [],
      "name": "endSupply",
      "outputs": [],
      "payable": false,
      "stateMutability": "nonpayable",
      "type": "function",
      "signature": "0x50847a33"
    },
    {
      "constant": false,
      "inputs": [
        {
          "name": "_sellerAddress",
          "type": "address"
        },
        {
          "name": "_sellerName",
          "type": "string"
        },
        {
          "name": "_sellerId",
          "type": "uint256"
        }
      ],
      "name": "registerSeller",
      "outputs": [
        {
          "name": "",
          "type": "bool"
        }
      ],
      "payable": false,
      "stateMutability": "nonpayable",
      "type": "function",
      "signature": "0xa93d4cae"
    },
    {
      "constant": true,
      "inputs": [],
      "name": "getSellers",
      "outputs": [
        {
          "name": "",
          "type": "address[]"
        }
      ],
      "payable": false,
      "stateMutability": "view",
      "type": "function",
      "signature": "0x7ee454cb"
    },
    {
      "constant": true,
      "inputs": [
        {
          "name": "_address",
          "type": "address"
        }
      ],
      "name": "getSeller",
      "outputs": [
        {
          "name": "",
          "type": "uint256"
        },
        {
          "name": "",
          "type": "string"
        }
      ],
      "payable": false,
      "stateMutability": "view",
      "type": "function",
      "signature": "0xa323d29e"
    },
    {
      "constant": false,
      "inputs": [
        {
          "name": "_productId",
          "type": "uint256"
        },
        {
          "name": "_productName",
          "type": "string"
        },
        {
          "name": "_bidStartPrice",
          "type": "uint256"
        },
        {
          "name": "_sessionValue",
          "type": "uint32"
        }
      ],
      "name": "addProductForBid",
      "outputs": [
        {
          "name": "",
          "type": "bool"
        }
      ],
      "payable": false,
      "stateMutability": "nonpayable",
      "type": "function",
      "signature": "0x2a4d8508"
    },
    {
      "constant": false,
      "inputs": [
        {
          "name": "_productId",
          "type": "uint256"
        },
        {
          "name": "_bidValue",
          "type": "uint256"
        }
      ],
      "name": "Bid",
      "outputs": [
        {
          "name": "",
          "type": "bool"
        }
      ],
      "payable": false,
      "stateMutability": "nonpayable",
      "type": "function",
      "signature": "0x47a0375b"
    },
    {
      "constant": false,
      "inputs": [
        {
          "name": "_productId",
          "type": "uint256"
        }
      ],
      "name": "finalizeBid",
      "outputs": [
        {
          "name": "",
          "type": "bool"
        }
      ],
      "payable": false,
      "stateMutability": "nonpayable",
      "type": "function",
      "signature": "0xcb6cbe8f"
    }
  ],
  "bytecode": "0x608060405234801561001057600080fd5b50604051604080612b6f8339810180604052604081101561003057600080fd5b810190808051906020019092919080519060200190929190505050336000806101000a81548173ffffffffffffffffffffffffffffffffffffffff021916908373ffffffffffffffffffffffffffffffffffffffff16021790555081600160006101000a81548173ffffffffffffffffffffffffffffffffffffffff021916908373ffffffffffffffffffffffffffffffffffffffff160217905550806002819055505050612a8b806100e46000396000f3fe6080604052600436106100e6576000357c0100000000000000000000000000000000000000000000000000000000900463ffffffff16806315424f01146100eb57806328b5ad4b146101505780632a4d8508146101cb5780633610724e146102cf5780633b1d25d1146102fd57806347a0375b1461037857806350847a33146103d5578063518ab2a8146103ec57806355a373d6146104175780637ee454cb1461046e5780637ff9b596146104da5780638a38ffa214610505578063a323d29e14610574578063a93d4cae14610645578063cb6cbe8f1461074f578063cff29dfd146107a2575b600080fd5b3480156100f757600080fd5b5061013a6004803603602081101561010e57600080fd5b81019080803573ffffffffffffffffffffffffffffffffffffffff16906020019092919050505061081d565b6040518082815260200191505060405180910390f35b34801561015c57600080fd5b506101896004803603602081101561017357600080fd5b8101908080359060200190929190505050610835565b604051808273ffffffffffffffffffffffffffffffffffffffff1673ffffffffffffffffffffffffffffffffffffffff16815260200191505060405180910390f35b3480156101d757600080fd5b506102b5600480360360808110156101ee57600080fd5b81019080803590602001909291908035906020019064010000000081111561021557600080fd5b82018360208201111561022757600080fd5b8035906020019184600183028401116401000000008311171561024957600080fd5b91908080601f016020809104026020016040519081016040528093929190818152602001838380828437600081840152601f19601f82011690508083019250505050505050919291929080359060200190929190803563ffffffff169060200190929190505050610868565b604051808215151515815260200191505060405180910390f35b6102fb600480360360208110156102e557600080fd5b8101908080359060200190929190505050610dca565b005b34801561030957600080fd5b506103366004803603602081101561032057600080fd5b81019080803590602001909291905050506111a2565b604051808273ffffffffffffffffffffffffffffffffffffffff1673ffffffffffffffffffffffffffffffffffffffff16815260200191505060405180910390f35b34801561038457600080fd5b506103bb6004803603604081101561039b57600080fd5b8101908080359060200190929190803590602001909291905050506111e0565b604051808215151515815260200191505060405180910390f35b3480156103e157600080fd5b506103ea61195f565b005b3480156103f857600080fd5b50610401611d54565b6040518082815260200191505060405180910390f35b34801561042357600080fd5b5061042c611d5a565b604051808273ffffffffffffffffffffffffffffffffffffffff1673ffffffffffffffffffffffffffffffffffffffff16815260200191505060405180910390f35b34801561047a57600080fd5b50610483611d80565b6040518080602001828103825283818151815260200191508051906020019060200280838360005b838110156104c65780820151818401526020810190506104ab565b505050509050019250505060405180910390f35b3480156104e657600080fd5b506104ef611e0e565b6040518082815260200191505060405180910390f35b34801561051157600080fd5b5061055e6004803603604081101561052857600080fd5b81019080803573ffffffffffffffffffffffffffffffffffffffff16906020019092919080359060200190929190505050611e14565b6040518082815260200191505060405180910390f35b34801561058057600080fd5b506105c36004803603602081101561059757600080fd5b81019080803573ffffffffffffffffffffffffffffffffffffffff169060200190929190505050611e39565b6040518083815260200180602001828103825283818151815260200191508051906020019080838360005b838110156106095780820151818401526020810190506105ee565b50505050905090810190601f1680156106365780820380516001836020036101000a031916815260200191505b50935050505060405180910390f35b34801561065157600080fd5b506107356004803603606081101561066857600080fd5b81019080803573ffffffffffffffffffffffffffffffffffffffff169060200190929190803590602001906401000000008111156106a557600080fd5b8201836020820111156106b757600080fd5b803590602001918460018302840111640100000000831117156106d957600080fd5b91908080601f016020809104026020016040519081016040528093929190818152602001838380828437600081840152601f19601f82011690508083019250505050505050919291929080359060200190929190505050611f67565b604051808215151515815260200191505060405180910390f35b34801561075b57600080fd5b506107886004803603602081101561077257600080fd5b8101908080359060200190929190505050612260565b604051808215151515815260200191505060405180910390f35b3480156107ae57600080fd5b506107db600480360360208110156107c557600080fd5b810190808035906020019092919050505061280b565b604051808273ffffffffffffffffffffffffffffffffffffffff1673ffffffffffffffffffffffffffffffffffffffff16815260200191505060405180910390f35b60066020528060005260406000206000915090505481565b60056020528060005260406000206000915054906101000a900473ffffffffffffffffffffffffffffffffffffffff1681565b600033600460008273ffffffffffffffffffffffffffffffffffffffff1673ffffffffffffffffffffffffffffffffffffffff16815260200190815260200160002060020160009054906101000a900460ff16151561092f576040517f08c379a00000000000000000000000000000000000000000000000000000000081526004018080602001828103825260158152602001807f73656c6c6572206e6f742072656769737465726564000000000000000000000081525060200191505060405180910390fd5b846007600088815260200190815260200160002060060190805190602001906109599291906128a8565b5083600760008881526020019081526020016000206001018190555060016007600088815260200190815260200160002060070160006101000a81548160ff021916908315150217905550426007600088815260200190815260200160002060020160006101000a81548163ffffffff021916908363ffffffff16021790555060016007600088815260200190815260200160002060070160006101000a81548160ff021916908315150217905550826007600088815260200190815260200160002060070160016101000a81548163ffffffff021916908363ffffffff160217905550610a45612928565b868160000181815250508581608001819052508481602001818152505042816040019063ffffffff16908163ffffffff168152505060018160a0019015159081151581525050838160c0019063ffffffff16908163ffffffff16815250506001600a8290806001815401808255809150509060018203906000526020600020906009020160009091929091909150600082015181600001556020820151816001015560408201518160020160006101000a81548163ffffffff021916908363ffffffff16021790555060608201518160030160008201518160000160006101000a81548173ffffffffffffffffffffffffffffffffffffffff021916908373ffffffffffffffffffffffffffffffffffffffff160217905550602082015181600101556040820151816002015550506080820151816006019080519060200190610b90929190612982565b5060a08201518160070160006101000a81548160ff02191690831515021790555060c08201518160070160016101000a81548163ffffffff021916908363ffffffff16021790555060e0820151816008019080519060200190610bf4929190612982565b5050505050336005600089815260200190815260200160002060006101000a81548173ffffffffffffffffffffffffffffffffffffffff021916908373ffffffffffffffffffffffffffffffffffffffff1602179055506001600660003373ffffffffffffffffffffffffffffffffffffffff1673ffffffffffffffffffffffffffffffffffffffff1681526020019081526020016000206000828254019250508190555084600860003373ffffffffffffffffffffffffffffffffffffffff1673ffffffffffffffffffffffffffffffffffffffff16815260200190815260200160002060008981526020019081526020016000208190555060011515873373ffffffffffffffffffffffffffffffffffffffff167f4de4150ffe329f5e6570a7a336587b4d706a4cf73edc12ab959139413af5a8b589898960405180806020018481526020018363ffffffff168152602001828103825285818151815260200191508051906020019080838360005b83811015610d80578082015181840152602081019050610d65565b50505050905090810190601f168015610dad5780820380516001836020036101000a031916815260200191505b5094505050505060405180910390a4600192505050949350505050565b610ddf6002548261284990919063ffffffff16565b34141515610e55576040517f08c379a00000000000000000000000000000000000000000000000000000000081526004018080602001828103825260208152602001807f636f727265637420616d6f756e74206f66206574686572206e6f742073656e7481525060200191505060405180910390fd5b80600160009054906101000a900473ffffffffffffffffffffffffffffffffffffffff1673ffffffffffffffffffffffffffffffffffffffff166370a08231306040518263ffffffff167c0100000000000000000000000000000000000000000000000000000000028152600401808273ffffffffffffffffffffffffffffffffffffffff1673ffffffffffffffffffffffffffffffffffffffff16815260200191505060206040518083038186803b158015610f1157600080fd5b505afa158015610f25573d6000803e3d6000fd5b505050506040513d6020811015610f3b57600080fd5b810190808051906020019092919050505010151515610fc2576040517f08c379a00000000000000000000000000000000000000000000000000000000081526004018080602001828103825260148152602001807f746f6b656e73206e6f7420617661696c61626c6500000000000000000000000081525060200191505060405180910390fd5b600160009054906101000a900473ffffffffffffffffffffffffffffffffffffffff1673ffffffffffffffffffffffffffffffffffffffff1663a9059cbb33836040518363ffffffff167c0100000000000000000000000000000000000000000000000000000000028152600401808373ffffffffffffffffffffffffffffffffffffffff1673ffffffffffffffffffffffffffffffffffffffff16815260200182815260200192505050602060405180830381600087803b15801561108757600080fd5b505af115801561109b573d6000803e3d6000fd5b505050506040513d60208110156110b157600080fd5b81019080805190602001909291905050501515611136576040517f08c379a000000000000000000000000000000000000000000000000000000000815260040180806020018281038252600f8152602001807f746f6b656e73206e6f742073656e74000000000000000000000000000000000081525060200191505060405180910390fd5b61114b8160035461288790919063ffffffff16565b6003819055503373ffffffffffffffffffffffffffffffffffffffff167ffe2ff4cf36ff7d2c2b06eb960897ee0d76d9c3e58da12feb7b93e86b226dd344826040518082815260200191505060405180910390a250565b6009818154811015156111b157fe5b906000526020600020016000915054906101000a900473ffffffffffffffffffffffffffffffffffffffff1681565b6000826007600082815260200190815260200160002060020160009054906101000a900463ffffffff166007600083815260200190815260200160002060070160019054906101000a900463ffffffff160163ffffffff16421015156112ae576040517f08c379a000000000000000000000000000000000000000000000000000000000815260040180806020018281038252601f8152602001807f54696d656f7574206f63637572656420666f72207468652070726f647563740081525060200191505060405180910390fd5b82600160009054906101000a900473ffffffffffffffffffffffffffffffffffffffff1673ffffffffffffffffffffffffffffffffffffffff166370a08231336040518263ffffffff167c0100000000000000000000000000000000000000000000000000000000028152600401808273ffffffffffffffffffffffffffffffffffffffff1673ffffffffffffffffffffffffffffffffffffffff16815260200191505060206040518083038186803b15801561136a57600080fd5b505afa15801561137e573d6000803e3d6000fd5b505050506040513d602081101561139457600080fd5b81019080805190602001909291905050501015151561141b576040517f08c379a00000000000000000000000000000000000000000000000000000000081526004018080602001828103825260128152602001807f6e6f7420656e6f7567682062616c616e6365000000000000000000000000000081525060200191505060405180910390fd5b82600860003373ffffffffffffffffffffffffffffffffffffffff1673ffffffffffffffffffffffffffffffffffffffff1681526020019081526020016000206000868152602001908152602001600020541115156114e2576040517f08c379a00000000000000000000000000000000000000000000000000000000081526004018080602001828103825260188152602001807f6d757374206269642061206c617267657220616d6f756e74000000000000000081525060200191505060405180910390fd5b82600160009054906101000a900473ffffffffffffffffffffffffffffffffffffffff1673ffffffffffffffffffffffffffffffffffffffff1663dd62ed3e33306040518363ffffffff167c0100000000000000000000000000000000000000000000000000000000028152600401808373ffffffffffffffffffffffffffffffffffffffff1673ffffffffffffffffffffffffffffffffffffffff1681526020018273ffffffffffffffffffffffffffffffffffffffff1673ffffffffffffffffffffffffffffffffffffffff1681526020019250505060206040518083038186803b1580156115d257600080fd5b505afa1580156115e6573d6000803e3d6000fd5b505050506040513d60208110156115fc57600080fd5b8101908080519060200190929190505050141515611682576040517f08c379a00000000000000000000000000000000000000000000000000000000081526004018080602001828103825260108152602001807f6e6f7420617070726f766564207965740000000000000000000000000000000081525060200191505060405180910390fd5b600160009054906101000a900473ffffffffffffffffffffffffffffffffffffffff1673ffffffffffffffffffffffffffffffffffffffff166323b872dd3330866040518463ffffffff167c0100000000000000000000000000000000000000000000000000000000028152600401808473ffffffffffffffffffffffffffffffffffffffff1673ffffffffffffffffffffffffffffffffffffffff1681526020018373ffffffffffffffffffffffffffffffffffffffff1673ffffffffffffffffffffffffffffffffffffffff1681526020018281526020019350505050602060405180830381600087803b15801561177b57600080fd5b505af115801561178f573d6000803e3d6000fd5b505050506040513d60208110156117a557600080fd5b81019080805190602001909291905050505082600860003373ffffffffffffffffffffffffffffffffffffffff1673ffffffffffffffffffffffffffffffffffffffff1681526020019081526020016000206000868152602001908152602001600020819055506001600b3390806001815401808255809150509060018203906000526020600020016000909192909190916101000a81548173ffffffffffffffffffffffffffffffffffffffff021916908373ffffffffffffffffffffffffffffffffffffffff1602179055505050336007600086815260200190815260200160002060030160000160006101000a81548173ffffffffffffffffffffffffffffffffffffffff021916908373ffffffffffffffffffffffffffffffffffffffff1602179055508360076000868152602001908152602001600020600301600101819055508260076000868152602001908152602001600020600301600201819055503373ffffffffffffffffffffffffffffffffffffffff16847f25503b4fa67c48e494bd01a58de80d35d064c1797891f4af928672a8f5ee0634856040518082815260200191505060405180910390a35092915050565b6000809054906101000a900473ffffffffffffffffffffffffffffffffffffffff1673ffffffffffffffffffffffffffffffffffffffff163373ffffffffffffffffffffffffffffffffffffffff16141515611a49576040517f08c379a00000000000000000000000000000000000000000000000000000000081526004018080602001828103825260218152602001807f6f6e6c792061646d696e2063616e20656e642074686520746f6b656e2073616c81526020017f650000000000000000000000000000000000000000000000000000000000000081525060400191505060405180910390fd5b600160009054906101000a900473ffffffffffffffffffffffffffffffffffffffff1673ffffffffffffffffffffffffffffffffffffffff1663a9059cbb6000809054906101000a900473ffffffffffffffffffffffffffffffffffffffff16600160009054906101000a900473ffffffffffffffffffffffffffffffffffffffff1673ffffffffffffffffffffffffffffffffffffffff166370a08231306040518263ffffffff167c0100000000000000000000000000000000000000000000000000000000028152600401808273ffffffffffffffffffffffffffffffffffffffff1673ffffffffffffffffffffffffffffffffffffffff16815260200191505060206040518083038186803b158015611b6457600080fd5b505afa158015611b78573d6000803e3d6000fd5b505050506040513d6020811015611b8e57600080fd5b81019080805190602001909291905050506040518363ffffffff167c0100000000000000000000000000000000000000000000000000000000028152600401808373ffffffffffffffffffffffffffffffffffffffff1673ffffffffffffffffffffffffffffffffffffffff16815260200182815260200192505050602060405180830381600087803b158015611c2457600080fd5b505af1158015611c38573d6000803e3d6000fd5b505050506040513d6020811015611c4e57600080fd5b81019080805190602001909291905050501515611cd3576040517f08c379a00000000000000000000000000000000000000000000000000000000081526004018080602001828103825260188152602001807f62616c616e6365206e6f74207472616e7366657272696e67000000000000000081525060200191505060405180910390fd5b6000809054906101000a900473ffffffffffffffffffffffffffffffffffffffff1673ffffffffffffffffffffffffffffffffffffffff166108fc3073ffffffffffffffffffffffffffffffffffffffff16319081150290604051600060405180830381858888f19350505050158015611d51573d6000803e3d6000fd5b50565b60035481565b600160009054906101000a900473ffffffffffffffffffffffffffffffffffffffff1681565b60606009805480602002602001604051908101604052809291908181526020018280548015611e0457602002820191906000526020600020905b8160009054906101000a900473ffffffffffffffffffffffffffffffffffffffff1673ffffffffffffffffffffffffffffffffffffffff1681526020019060010190808311611dba575b5050505050905090565b60025481565b6008602052816000526040600020602052806000526040600020600091509150505481565b60006060600460008473ffffffffffffffffffffffffffffffffffffffff1673ffffffffffffffffffffffffffffffffffffffff16815260200190815260200160002060000154600460008573ffffffffffffffffffffffffffffffffffffffff1673ffffffffffffffffffffffffffffffffffffffff168152602001908152602001600020600101808054600181600116156101000203166002900480601f016020809104026020016040519081016040528092919081815260200182805460018160011615610100020316600290048015611f575780601f10611f2c57610100808354040283529160200191611f57565b820191906000526020600020905b815481529060010190602001808311611f3a57829003601f168201915b5050505050905091509150915091565b60008060009054906101000a900473ffffffffffffffffffffffffffffffffffffffff1673ffffffffffffffffffffffffffffffffffffffff163373ffffffffffffffffffffffffffffffffffffffff1614151561202d576040517f08c379a000000000000000000000000000000000000000000000000000000000815260040180806020018281038252600c8152602001807f6e6f7420616e2061646d696e000000000000000000000000000000000000000081525060200191505060405180910390fd5b83600460008273ffffffffffffffffffffffffffffffffffffffff1673ffffffffffffffffffffffffffffffffffffffff16815260200190815260200160002060020160009054906101000a900460ff1615156120f2576040517f08c379a00000000000000000000000000000000000000000000000000000000081526004018080602001828103825260158152602001807f73656c6c6572206e6f742072656769737465726564000000000000000000000081525060200191505060405180910390fd5b83600460008773ffffffffffffffffffffffffffffffffffffffff1673ffffffffffffffffffffffffffffffffffffffff16815260200190815260200160002060010190805190602001906121489291906128a8565b5082600460008773ffffffffffffffffffffffffffffffffffffffff1673ffffffffffffffffffffffffffffffffffffffff168152602001908152602001600020600001819055506001600460008773ffffffffffffffffffffffffffffffffffffffff1673ffffffffffffffffffffffffffffffffffffffff16815260200190815260200160002060020160006101000a81548160ff021916908315150217905550600160098690806001815401808255809150509060018203906000526020600020016000909192909190916101000a81548173ffffffffffffffffffffffffffffffffffffffff021916908373ffffffffffffffffffffffffffffffffffffffff160217905550505060019150509392505050565b60003373ffffffffffffffffffffffffffffffffffffffff166005600084815260200190815260200160002060009054906101000a900473ffffffffffffffffffffffffffffffffffffffff1673ffffffffffffffffffffffffffffffffffffffff16141515612338576040517f08c379a00000000000000000000000000000000000000000000000000000000081526004018080602001828103825260208152602001807f73656c6c65722063616e206f6e6c792066696e616c697a65207468652062696481525060200191505060405180910390fd5b6007600083815260200190815260200160002060020160009054906101000a900463ffffffff166007600084815260200190815260200160002060070160019054906101000a900463ffffffff160163ffffffff1642111515612403576040517f08c379a000000000000000000000000000000000000000000000000000000000815260040180806020018281038252600f8152602001807f63616e6e6f742066696e616c697a65000000000000000000000000000000000081525060200191505060405180910390fd5b60006007600084815260200190815260200160002060070160006101000a81548160ff02191690831515021790555060008090505b600b805490508110156126b2576000600b8281548110151561245657fe5b9060005260206000200160009054906101000a900473ffffffffffffffffffffffffffffffffffffffff1690506000600860008373ffffffffffffffffffffffffffffffffffffffff1673ffffffffffffffffffffffffffffffffffffffff1681526020019081526020016000206000868152602001908152602001600020541415801561254d57506007600085815260200190815260200160002060030160020154600860008373ffffffffffffffffffffffffffffffffffffffff1673ffffffffffffffffffffffffffffffffffffffff16815260200190815260200160002060008681526020019081526020016000205414155b156126a457600160009054906101000a900473ffffffffffffffffffffffffffffffffffffffff1673ffffffffffffffffffffffffffffffffffffffff1663a9059cbb82600860008573ffffffffffffffffffffffffffffffffffffffff1673ffffffffffffffffffffffffffffffffffffffff1681526020019081526020016000206000888152602001908152602001600020546040518363ffffffff167c0100000000000000000000000000000000000000000000000000000000028152600401808373ffffffffffffffffffffffffffffffffffffffff1673ffffffffffffffffffffffffffffffffffffffff16815260200182815260200192505050602060405180830381600087803b15801561266757600080fd5b505af115801561267b573d6000803e3d6000fd5b505050506040513d602081101561269157600080fd5b8101908080519060200190929190505050505b508080600101915050612438565b50600160009054906101000a900473ffffffffffffffffffffffffffffffffffffffff1673ffffffffffffffffffffffffffffffffffffffff1663a9059cbb6007600085815260200190815260200160002060030160000160009054906101000a900473ffffffffffffffffffffffffffffffffffffffff1660076000868152602001908152602001600020600301600201546040518363ffffffff167c0100000000000000000000000000000000000000000000000000000000028152600401808373ffffffffffffffffffffffffffffffffffffffff1673ffffffffffffffffffffffffffffffffffffffff16815260200182815260200192505050602060405180830381600087803b1580156127ca57600080fd5b505af11580156127de573d6000803e3d6000fd5b505050506040513d60208110156127f457600080fd5b810190808051906020019092919050505050919050565b600b8181548110151561281a57fe5b906000526020600020016000915054906101000a900473ffffffffffffffffffffffffffffffffffffffff1681565b60008083141561285c5760009050612881565b6000828402905082848281151561286f57fe5b0414151561287c57600080fd5b809150505b92915050565b600080828401905083811015151561289e57600080fd5b8091505092915050565b828054600181600116156101000203166002900490600052602060002090601f016020900481019282601f106128e957805160ff1916838001178555612917565b82800160010185558215612917579182015b828111156129165782518255916020019190600101906128fb565b5b5090506129249190612a02565b5090565b610140604051908101604052806000815260200160008152602001600063ffffffff168152602001612958612a27565b815260200160608152602001600015158152602001600063ffffffff168152602001606081525090565b828054600181600116156101000203166002900490600052602060002090601f016020900481019282601f106129c357805160ff19168380011785556129f1565b828001600101855582156129f1579182015b828111156129f05782518255916020019190600101906129d5565b5b5090506129fe9190612a02565b5090565b612a2491905b80821115612a20576000816000905550600101612a08565b5090565b90565b606060405190810160405280600073ffffffffffffffffffffffffffffffffffffffff1681526020016000815260200160008152509056fea165627a7a7230582029ff9c15dcac3b6d28801f8b538fdceed06d8571495611ae51e406bb0ef806fa0029",
  "source": "// BiddingContract: Takes care of all the bidding business logic and admin related permissions\n \npragma solidity >=0.4.21 <0.6.0;\n\n// import the ASS token\nimport \"./AucSters.sol\";\n\n// SafeMath for Ops Utils\nimport \"../libraries/SafeMath.sol\";\n\ncontract BiddingContract {\n\n    using SafeMath for uint; \n\n    address payable admin;\n    AucSters public tokenContract;\n    uint256 public tokenPrice;\n    uint256 public tokensSold;\n\n    //structs\n    struct Seller {\n        uint256 sellerId;\n        string sellerName;\n        bool isValidSeller;\n    }\n    struct Bidder {\n        address bidders_address;\n        uint productId;\n        uint bidValue;\n    }\n    struct Product {\n        uint productId;\n        uint bidStartPrice;\n        uint32 bidStartTime;\n        Bidder latestBid;\n        string productName;\n        bool isAvailable;\n        uint32 bidSession;\n        string productImage;\n    }\n\n\n\n    //seller-mappings\n    mapping(address => Seller) registeredSeller;\n\n    // ** product-mappings : a registered seller has multiple products\n\n    //lookup for the owner of product with productId\n    mapping(uint => address) public productIdToOwner;\n    mapping(address => uint) public productCount;\n\n    //get product details with specific productId\n    mapping(uint => Product) product;\n\n    //latest bid tracker\n    mapping(address => mapping(uint => uint)) public latestBidStore;\n\n\n    //ARRAYS\n    address[] public regSellers;\n    Product[] productsForSale;\n    address[] public bidders;\n\n\n    // modifiers\n    modifier onlyOwner() {\n        require(msg.sender == admin, \"not an admin\");\n        _;\n    }\n\n    modifier isRegisteredSeller(address _seller) {\n        require(registeredSeller[_seller].isValidSeller,\"seller not registered\");\n        _;\n    }\n\n    modifier inSession(uint256 _productId){\n        require(now < product[_productId].bidSession + product[_productId].bidStartTime, \"Timeout occured for the product\");\n        _;\n    }\n    //events\n    event TokenSold(address indexed _customer,\n                    uint _numberOfTokens\n    );\n\n    event ProductSold(uint indexed _productId,\n                address indexed _customer,\n                uint _numberOfTokens\n    );\n\n    event Bidding(uint indexed _productId,\n                address indexed _bidder,\n                uint _numberOfTokens\n    );\n\n    event NewProductAdded( address indexed _sellerId,\n                           uint indexed _productId,\n                           string productName,\n                           uint bidStartTime,\n                           bool indexed isAvailable,\n                           uint bidSession\n    );\n\n\n\n    constructor(AucSters _tokenContract, uint _tokenPrice) public {\n        //Assign an admin\n        admin = msg.sender;\n\n        // token Contract \n        tokenContract = _tokenContract;\n        \n        //Token price\n        tokenPrice = _tokenPrice;\n    }\n\n    function buyTokens(uint256 _numberOfTokens) public payable {\n        require(msg.value == _numberOfTokens.mul(tokenPrice), \"correct amount of ether not sent\");\n        require(tokenContract.balanceOf(address(this)) >= _numberOfTokens, \"tokens not available\");\n        require(tokenContract.transfer(msg.sender, _numberOfTokens), \"tokens not sent\");\n\n        tokensSold = tokensSold.add(_numberOfTokens);\n\n        emit TokenSold(msg.sender, _numberOfTokens);\n    }\n\n    function endSupply() public {\n        require(msg.sender == admin,\"only admin can end the token sale\");\n        require(tokenContract.transfer(admin, tokenContract.balanceOf(address(this))),\"balance not transferring\");\n\n        //selfdestruct(msg.sender);\n        admin.transfer(address(this).balance);\n    }\n\n    // registration of seller from the admin\n    function registerSeller(address _sellerAddress, string memory _sellerName, uint256 _sellerId) public onlyOwner isRegisteredSeller(_sellerAddress) returns(bool){\n        registeredSeller[_sellerAddress].sellerName = _sellerName;\n        registeredSeller[_sellerAddress].sellerId = _sellerId;\n        registeredSeller[_sellerAddress].isValidSeller = true;\n\n        regSellers.push(_sellerAddress) - 1;\n\n        return true;\n    }\n    // get All sellers\n    function getSellers() public view  returns(address[] memory) {\n        return regSellers;\n    }\n\n    // get description of a registered seller\n    function getSeller(address _address) public view returns(uint, string memory){\n        return( registeredSeller[_address].sellerId, registeredSeller[_address].sellerName);\n    }\n\n    // function getProductForSale() public pure returns(Product[] memory prods){\n    //     prods = productsForSale;\n    //     return(prods);\n    // }\n\n    // registered sellers can add products for bidding\n    function addProductForBid(uint _productId, string memory _productName, uint256 _bidStartPrice, uint32 _sessionValue) public isRegisteredSeller(msg.sender) returns(bool){\n\n        // update the product mapping\n        product[_productId].productName = _productName;\n        product[_productId].bidStartPrice = _bidStartPrice;\n        product[_productId].isAvailable = true;\n        product[_productId].bidStartTime = uint32(now);\n        product[_productId].isAvailable = true;\n        product[_productId].bidSession = _sessionValue;\n\n\n        // Update the all product array\n        Product memory newProduct;\n        newProduct.productId = _productId;\n        newProduct.productName = _productName;\n        newProduct.bidStartPrice = _bidStartPrice;\n        newProduct.bidStartTime = uint32(now);\n        newProduct.isAvailable = true;\n        newProduct.bidSession = _sessionValue;\n\n\n        productsForSale.push(newProduct) - 1;\n\n        productIdToOwner[_productId] = msg.sender;\n        productCount[msg.sender] += 1;\n\n        //Initial Bid price is set to the mapping\n        latestBidStore[msg.sender][_productId] = _bidStartPrice;\n\n        // emit an product added event\n        emit NewProductAdded(msg.sender, _productId, _productName, _bidStartPrice, true, _sessionValue);\n\n        return true;\n    }\n\n    // UPGRADE : function removeProduct();\n    // UPGRADE : update productForSale array\n\n\n    // bidding on a certain product\n\n    function Bid(uint _productId, uint _bidValue) inSession(_productId) public returns(bool) { // modifier to check the session is still there\n        // check if msg.sender has enough balance\n        require(tokenContract.balanceOf(msg.sender) >= _bidValue, \"not enough balance\");\n            // check if bid is higher than previous bid event \n        require(latestBidStore[msg.sender][_productId] > _bidValue, \"must bid a larger amount\");\n            //  transfer the token for locking \n        \n       // ** approve should be called first  ** \n       // tokenContract.approve(address(this), _bidValue);\n\n       // check if approve has been called\n\n        require(tokenContract.allowance(msg.sender,address(this)) == _bidValue, \"not approved yet\");\n\n        tokenContract.transferFrom(msg.sender, address(this), _bidValue);\n\n            //  update the bid amount : latestBidPrice\n        latestBidStore[msg.sender][_productId] = _bidValue;\n            // update the bidding array\n        bidders.push(msg.sender) - 1;\n        product[_productId].latestBid.bidders_address = msg.sender;\n        product[_productId].latestBid.productId = _productId;\n\n        product[_productId].latestBid.bidValue = _bidValue;\n\n            //  trigger event on every update \n        emit Bidding(_productId,msg.sender, _bidValue);\n    }\n\n    // on Session end called by the Seller\n\n    function finalizeBid(uint _productId) public returns(bool) {\n        // check if called by the product seller only \n        require(productIdToOwner[_productId] == msg.sender, \"seller can only finalize the bid\");\n        // check if session is timed out or not \n        require(now > product[_productId].bidSession + product[_productId].bidStartTime, \"cannot finalize\");\n        // finalize price of higest bid // last bidder\n\n        //product no more available\n        product[_productId].isAvailable = false;\n        // return the rest of bidders' tokens locked \n        for(uint i = 0;i < bidders.length;i++) {\n            // find and refund the bidders who have got their token locked for the auction and did not won the product\n            address bid_addr = bidders[i];\n            if(latestBidStore[bid_addr][_productId] != 0 && latestBidStore[bid_addr][_productId] != product[_productId].latestBid.bidValue) {\n                // process the return\n                tokenContract.transfer(bid_addr, latestBidStore[bid_addr][_productId]);          \n            }\n        }\n        tokenContract.transfer(product[_productId].latestBid.bidders_address,product[_productId].latestBid.bidValue);\n        \n        // UPGRADE : supplychain triggered on Bid Finalization, \n        //           approve the supply chain to ... onSuccess() -> transfer money to the seller\n        //              on failure -> refund back to buyer\n\n    }\n\n    // supply chain and locking \n\n}",
  "sourcePath": "/Users/dibs/Desktop/consensys_doc/proyecto-contract-design-AucAuc/contracts/BiddingContract.sol",
  "compiler": {
    "name": "solc",
    "version": "0.5.0+commit.1d4f565a.Emscripten.clang"
  },
  "schemaVersion": "3.0.1",
  "updatedAt": "2019-01-27T18:08:06.521Z",
  "devdoc": {
    "methods": {}
  },
  "userdoc": {
    "methods": {}
  }
}