{
  "contractName": "BiddingContract",
  "abi": [
    {
      "constant": true,
      "inputs": [
        {
          "name": "",
          "type": "uint256"
        }
      ],
      "name": "productIdToOwner",
      "outputs": [
        {
          "name": "",
          "type": "address"
        }
      ],
      "payable": false,
      "stateMutability": "view",
      "type": "function",
      "signature": "0x28b5ad4b"
    },
    {
      "constant": true,
      "inputs": [
        {
          "name": "",
          "type": "uint256"
        }
      ],
      "name": "regSellers",
      "outputs": [
        {
          "name": "",
          "type": "address"
        }
      ],
      "payable": false,
      "stateMutability": "view",
      "type": "function",
      "signature": "0x3b1d25d1"
    },
    {
      "constant": true,
      "inputs": [],
      "name": "tokensSold",
      "outputs": [
        {
          "name": "",
          "type": "uint256"
        }
      ],
      "payable": false,
      "stateMutability": "view",
      "type": "function",
      "signature": "0x518ab2a8"
    },
    {
      "constant": true,
      "inputs": [],
      "name": "tokenContract",
      "outputs": [
        {
          "name": "",
          "type": "address"
        }
      ],
      "payable": false,
      "stateMutability": "view",
      "type": "function",
      "signature": "0x55a373d6"
    },
    {
      "constant": true,
      "inputs": [
        {
          "name": "",
          "type": "uint256"
        }
      ],
      "name": "product",
      "outputs": [
        {
          "name": "productId",
          "type": "uint256"
        },
        {
          "name": "bidStartPrice",
          "type": "uint256"
        },
        {
          "name": "bidStartTime",
          "type": "uint32"
        },
        {
          "name": "latestBidPrice",
          "type": "uint256"
        },
        {
          "name": "productName",
          "type": "string"
        },
        {
          "name": "isAvailable",
          "type": "bool"
        },
        {
          "name": "bidSession",
          "type": "uint32"
        }
      ],
      "payable": false,
      "stateMutability": "view",
      "type": "function",
      "signature": "0x780bd3f1"
    },
    {
      "constant": true,
      "inputs": [
        {
          "name": "",
          "type": "address"
        }
      ],
      "name": "products",
      "outputs": [
        {
          "name": "productId",
          "type": "uint256"
        },
        {
          "name": "bidStartPrice",
          "type": "uint256"
        },
        {
          "name": "bidStartTime",
          "type": "uint32"
        },
        {
          "name": "latestBidPrice",
          "type": "uint256"
        },
        {
          "name": "productName",
          "type": "string"
        },
        {
          "name": "isAvailable",
          "type": "bool"
        },
        {
          "name": "bidSession",
          "type": "uint32"
        }
      ],
      "payable": false,
      "stateMutability": "view",
      "type": "function",
      "signature": "0x793a8e71"
    },
    {
      "constant": true,
      "inputs": [],
      "name": "tokenPrice",
      "outputs": [
        {
          "name": "",
          "type": "uint256"
        }
      ],
      "payable": false,
      "stateMutability": "view",
      "type": "function",
      "signature": "0x7ff9b596"
    },
    {
      "constant": true,
      "inputs": [
        {
          "name": "",
          "type": "uint256"
        }
      ],
      "name": "productsForSale",
      "outputs": [
        {
          "name": "productId",
          "type": "uint256"
        },
        {
          "name": "bidStartPrice",
          "type": "uint256"
        },
        {
          "name": "bidStartTime",
          "type": "uint32"
        },
        {
          "name": "latestBidPrice",
          "type": "uint256"
        },
        {
          "name": "productName",
          "type": "string"
        },
        {
          "name": "isAvailable",
          "type": "bool"
        },
        {
          "name": "bidSession",
          "type": "uint32"
        }
      ],
      "payable": false,
      "stateMutability": "view",
      "type": "function",
      "signature": "0xab4d9be2"
    },
    {
      "inputs": [
        {
          "name": "_tokenContract",
          "type": "address"
        },
        {
          "name": "_tokenPrice",
          "type": "uint256"
        }
      ],
      "payable": false,
      "stateMutability": "nonpayable",
      "type": "constructor",
      "signature": "constructor"
    },
    {
      "anonymous": false,
      "inputs": [
        {
          "indexed": true,
          "name": "_customer",
          "type": "address"
        },
        {
          "indexed": false,
          "name": "_numberOfTokens",
          "type": "uint256"
        }
      ],
      "name": "TokenSold",
      "type": "event",
      "signature": "0xfe2ff4cf36ff7d2c2b06eb960897ee0d76d9c3e58da12feb7b93e86b226dd344"
    },
    {
      "anonymous": false,
      "inputs": [
        {
          "indexed": true,
          "name": "_productId",
          "type": "uint256"
        },
        {
          "indexed": true,
          "name": "_customer",
          "type": "address"
        },
        {
          "indexed": false,
          "name": "_numberOfTokens",
          "type": "uint256"
        }
      ],
      "name": "ProductSold",
      "type": "event",
      "signature": "0x31bb31d00bedecd9cb0a6f27507b6f5b268f069f24168aa35ae70c21c2e8d5ca"
    },
    {
      "anonymous": false,
      "inputs": [
        {
          "indexed": true,
          "name": "_productId",
          "type": "uint256"
        },
        {
          "indexed": true,
          "name": "_bidder",
          "type": "address"
        },
        {
          "indexed": false,
          "name": "_numberOfTokens",
          "type": "uint256"
        }
      ],
      "name": "Bidding",
      "type": "event",
      "signature": "0x25503b4fa67c48e494bd01a58de80d35d064c1797891f4af928672a8f5ee0634"
    },
    {
      "constant": false,
      "inputs": [
        {
          "name": "_numberOfTokens",
          "type": "uint256"
        }
      ],
      "name": "buyTokens",
      "outputs": [],
      "payable": true,
      "stateMutability": "payable",
      "type": "function",
      "signature": "0x3610724e"
    },
    {
      "constant": false,
      "inputs": [],
      "name": "endSupply",
      "outputs": [],
      "payable": false,
      "stateMutability": "nonpayable",
      "type": "function",
      "signature": "0x50847a33"
    },
    {
      "constant": false,
      "inputs": [
        {
          "name": "_sellerAddress",
          "type": "address"
        },
        {
          "name": "_sellerName",
          "type": "string"
        },
        {
          "name": "_sellerId",
          "type": "uint256"
        }
      ],
      "name": "registerSeller",
      "outputs": [
        {
          "name": "",
          "type": "bool"
        }
      ],
      "payable": false,
      "stateMutability": "nonpayable",
      "type": "function",
      "signature": "0xa93d4cae"
    },
    {
      "constant": true,
      "inputs": [],
      "name": "getSellers",
      "outputs": [
        {
          "name": "",
          "type": "address[]"
        }
      ],
      "payable": false,
      "stateMutability": "view",
      "type": "function",
      "signature": "0x7ee454cb"
    },
    {
      "constant": true,
      "inputs": [
        {
          "name": "_address",
          "type": "address"
        }
      ],
      "name": "getSeller",
      "outputs": [
        {
          "name": "",
          "type": "uint256"
        },
        {
          "name": "",
          "type": "string"
        }
      ],
      "payable": false,
      "stateMutability": "view",
      "type": "function",
      "signature": "0xa323d29e"
    },
    {
      "constant": false,
      "inputs": [
        {
          "name": "_productId",
          "type": "uint256"
        },
        {
          "name": "_productName",
          "type": "string"
        },
        {
          "name": "_bidStartPrice",
          "type": "uint256"
        },
        {
          "name": "_sessionValue",
          "type": "uint32"
        }
      ],
      "name": "addProductForBid",
      "outputs": [
        {
          "name": "",
          "type": "bool"
        }
      ],
      "payable": false,
      "stateMutability": "nonpayable",
      "type": "function",
      "signature": "0x2a4d8508"
    },
    {
      "constant": false,
      "inputs": [
        {
          "name": "_productId",
          "type": "uint256"
        },
        {
          "name": "_bidValue",
          "type": "uint256"
        }
      ],
      "name": "Bid",
      "outputs": [
        {
          "name": "",
          "type": "bool"
        }
      ],
      "payable": false,
      "stateMutability": "nonpayable",
      "type": "function",
      "signature": "0x47a0375b"
    }
  ],
  "bytecode": "0x608060405234801561001057600080fd5b506040516040806127078339810180604052604081101561003057600080fd5b810190808051906020019092919080519060200190929190505050336000806101000a81548173ffffffffffffffffffffffffffffffffffffffff021916908373ffffffffffffffffffffffffffffffffffffffff16021790555081600160006101000a81548173ffffffffffffffffffffffffffffffffffffffff021916908373ffffffffffffffffffffffffffffffffffffffff160217905550806002819055505050612623806100e46000396000f3fe6080604052600436106100db576000357c0100000000000000000000000000000000000000000000000000000000900463ffffffff16806328b5ad4b146100e05780632a4d85081461015b5780633610724e1461025f5780633b1d25d11461028d57806347a0375b1461030857806350847a3314610365578063518ab2a81461037c57806355a373d6146103a7578063780bd3f1146103fe578063793a8e71146104f85780637ee454cb146106085780637ff9b59614610674578063a323d29e1461069f578063a93d4cae14610770578063ab4d9be21461087a575b600080fd5b3480156100ec57600080fd5b506101196004803603602081101561010357600080fd5b8101908080359060200190929190505050610974565b604051808273ffffffffffffffffffffffffffffffffffffffff1673ffffffffffffffffffffffffffffffffffffffff16815260200191505060405180910390f35b34801561016757600080fd5b506102456004803603608081101561017e57600080fd5b8101908080359060200190929190803590602001906401000000008111156101a557600080fd5b8201836020820111156101b757600080fd5b803590602001918460018302840111640100000000831117156101d957600080fd5b91908080601f016020809104026020016040519081016040528093929190818152602001838380828437600081840152601f19601f82011690508083019250505050505050919291929080359060200190929190803563ffffffff1690602001909291905050506109a7565b604051808215151515815260200191505060405180910390f35b61028b6004803603602081101561027557600080fd5b8101908080359060200190929190505050610ead565b005b34801561029957600080fd5b506102c6600480360360208110156102b057600080fd5b81019080803590602001909291905050506112d7565b604051808273ffffffffffffffffffffffffffffffffffffffff1673ffffffffffffffffffffffffffffffffffffffff16815260200191505060405180910390f35b34801561031457600080fd5b5061034b6004803603604081101561032b57600080fd5b810190808035906020019092919080359060200190929190505050611315565b604051808215151515815260200191505060405180910390f35b34801561037157600080fd5b5061037a61188f565b005b34801561038857600080fd5b50610391611c1c565b6040518082815260200191505060405180910390f35b3480156103b357600080fd5b506103bc611c22565b604051808273ffffffffffffffffffffffffffffffffffffffff1673ffffffffffffffffffffffffffffffffffffffff16815260200191505060405180910390f35b34801561040a57600080fd5b506104376004803603602081101561042157600080fd5b8101908080359060200190929190505050611c48565b604051808881526020018781526020018663ffffffff1663ffffffff16815260200185815260200180602001841515151581526020018363ffffffff1663ffffffff168152602001828103825285818151815260200191508051906020019080838360005b838110156104b757808201518184015260208101905061049c565b50505050905090810190601f1680156104e45780820380516001836020036101000a031916815260200191505b509850505050505050505060405180910390f35b34801561050457600080fd5b506105476004803603602081101561051b57600080fd5b81019080803573ffffffffffffffffffffffffffffffffffffffff169060200190929190505050611d4f565b604051808881526020018781526020018663ffffffff1663ffffffff16815260200185815260200180602001841515151581526020018363ffffffff1663ffffffff168152602001828103825285818151815260200191508051906020019080838360005b838110156105c75780820151818401526020810190506105ac565b50505050905090810190601f1680156105f45780820380516001836020036101000a031916815260200191505b509850505050505050505060405180910390f35b34801561061457600080fd5b5061061d611e56565b6040518080602001828103825283818151815260200191508051906020019060200280838360005b83811015610660578082015181840152602081019050610645565b505050509050019250505060405180910390f35b34801561068057600080fd5b50610689611ee4565b6040518082815260200191505060405180910390f35b3480156106ab57600080fd5b506106ee600480360360208110156106c257600080fd5b81019080803573ffffffffffffffffffffffffffffffffffffffff169060200190929190505050611eea565b6040518083815260200180602001828103825283818151815260200191508051906020019080838360005b83811015610734578082015181840152602081019050610719565b50505050905090810190601f1680156107615780820380516001836020036101000a031916815260200191505b50935050505060405180910390f35b34801561077c57600080fd5b506108606004803603606081101561079357600080fd5b81019080803573ffffffffffffffffffffffffffffffffffffffff169060200190929190803590602001906401000000008111156107d057600080fd5b8201836020820111156107e257600080fd5b8035906020019184600183028401116401000000008311171561080457600080fd5b91908080601f016020809104026020016040519081016040528093929190818152602001838380828437600081840152601f19601f82011690508083019250505050505050919291929080359060200190929190505050612018565b604051808215151515815260200191505060405180910390f35b34801561088657600080fd5b506108b36004803603602081101561089d57600080fd5b8101908080359060200190929190505050612311565b604051808881526020018781526020018663ffffffff1663ffffffff16815260200185815260200180602001841515151581526020018363ffffffff1663ffffffff168152602001828103825285818151815260200191508051906020019080838360005b83811015610933578082015181840152602081019050610918565b50505050905090810190601f1680156109605780820380516001836020036101000a031916815260200191505b509850505050505050505060405180910390f35b60066020528060005260406000206000915054906101000a900473ffffffffffffffffffffffffffffffffffffffff1681565b600033600460008273ffffffffffffffffffffffffffffffffffffffff1673ffffffffffffffffffffffffffffffffffffffff16815260200190815260200160002060020160009054906101000a900460ff161515610a6e576040517f08c379a00000000000000000000000000000000000000000000000000000000081526004018080602001828103825260158152602001807f73656c6c6572206e6f742072656769737465726564000000000000000000000081525060200191505060405180910390fd5b85600560003373ffffffffffffffffffffffffffffffffffffffff1673ffffffffffffffffffffffffffffffffffffffff1681526020019081526020016000206000018190555084600560003373ffffffffffffffffffffffffffffffffffffffff1673ffffffffffffffffffffffffffffffffffffffff1681526020019081526020016000206004019080519060200190610b0b929190612486565b5083600560003373ffffffffffffffffffffffffffffffffffffffff1673ffffffffffffffffffffffffffffffffffffffff168152602001908152602001600020600101819055506001600560003373ffffffffffffffffffffffffffffffffffffffff1673ffffffffffffffffffffffffffffffffffffffff16815260200190815260200160002060050160006101000a81548160ff02191690831515021790555042600560003373ffffffffffffffffffffffffffffffffffffffff1673ffffffffffffffffffffffffffffffffffffffff16815260200190815260200160002060020160006101000a81548163ffffffff021916908363ffffffff16021790555082600560003373ffffffffffffffffffffffffffffffffffffffff1673ffffffffffffffffffffffffffffffffffffffff16815260200190815260200160002060050160016101000a81548163ffffffff021916908363ffffffff16021790555084600760008881526020019081526020016000206004019080519060200190610c9a929190612486565b5083600760008881526020019081526020016000206001018190555060016007600088815260200190815260200160002060050160006101000a81548160ff021916908315150217905550610ced612506565b868160000181815250508581608001819052508481602001818152505060018160a00190151590811515815250506001600a8290806001815401808255809150509060018203906000526020600020906006020160009091929091909150600082015181600001556020820151816001015560408201518160020160006101000a81548163ffffffff021916908363ffffffff160217905550606082015181600301556080820151816004019080519060200190610dac929190612552565b5060a08201518160050160006101000a81548160ff02191690831515021790555060c08201518160050160016101000a81548163ffffffff021916908363ffffffff16021790555050505050336006600089815260200190815260200160002060006101000a81548173ffffffffffffffffffffffffffffffffffffffff021916908373ffffffffffffffffffffffffffffffffffffffff16021790555084600860003373ffffffffffffffffffffffffffffffffffffffff1673ffffffffffffffffffffffffffffffffffffffff168152602001908152602001600020600089815260200190815260200160002081905550600192505050949350505050565b6000610ec46002548361242790919063ffffffff16565b90508034141515610f63576040517f08c379a00000000000000000000000000000000000000000000000000000000081526004018080602001828103825260238152602001807f627579657220646f65736e27742073656e742073756666696369656e7420667581526020017f6e6473000000000000000000000000000000000000000000000000000000000081525060400191505060405180910390fd5b81600160009054906101000a900473ffffffffffffffffffffffffffffffffffffffff1673ffffffffffffffffffffffffffffffffffffffff166370a08231306040518263ffffffff167c0100000000000000000000000000000000000000000000000000000000028152600401808273ffffffffffffffffffffffffffffffffffffffff1673ffffffffffffffffffffffffffffffffffffffff16815260200191505060206040518083038186803b15801561101f57600080fd5b505afa158015611033573d6000803e3d6000fd5b505050506040513d602081101561104957600080fd5b8101908080519060200190929190505050101515156110f6576040517f08c379a00000000000000000000000000000000000000000000000000000000081526004018080602001828103825260218152602001807f636f6e747261637420646f6e74206861766520656e6f7567682062616c616e6381526020017f650000000000000000000000000000000000000000000000000000000000000081525060400191505060405180910390fd5b600160009054906101000a900473ffffffffffffffffffffffffffffffffffffffff1673ffffffffffffffffffffffffffffffffffffffff1663a9059cbb33846040518363ffffffff167c0100000000000000000000000000000000000000000000000000000000028152600401808373ffffffffffffffffffffffffffffffffffffffff1673ffffffffffffffffffffffffffffffffffffffff16815260200182815260200192505050602060405180830381600087803b1580156111bb57600080fd5b505af11580156111cf573d6000803e3d6000fd5b505050506040513d60208110156111e557600080fd5b8101908080519060200190929190505050151561126a576040517f08c379a000000000000000000000000000000000000000000000000000000000815260040180806020018281038252601a8152602001807f63616e6e6f74207472616e736665722074686520746f6b656e7300000000000081525060200191505060405180910390fd5b61127f8260035461246590919063ffffffff16565b6003819055503373ffffffffffffffffffffffffffffffffffffffff167ffe2ff4cf36ff7d2c2b06eb960897ee0d76d9c3e58da12feb7b93e86b226dd344836040518082815260200191505060405180910390a25050565b6009818154811015156112e657fe5b906000526020600020016000915054906101000a900473ffffffffffffffffffffffffffffffffffffffff1681565b6000826007600082815260200190815260200160002060020160009054906101000a900463ffffffff166007600083815260200190815260200160002060050160019054906101000a900463ffffffff160163ffffffff16421015156113e3576040517f08c379a000000000000000000000000000000000000000000000000000000000815260040180806020018281038252601f8152602001807f54696d656f7574206f63637572656420666f72207468652070726f647563740081525060200191505060405180910390fd5b82600160009054906101000a900473ffffffffffffffffffffffffffffffffffffffff1673ffffffffffffffffffffffffffffffffffffffff166370a08231336040518263ffffffff167c0100000000000000000000000000000000000000000000000000000000028152600401808273ffffffffffffffffffffffffffffffffffffffff1673ffffffffffffffffffffffffffffffffffffffff16815260200191505060206040518083038186803b15801561149f57600080fd5b505afa1580156114b3573d6000803e3d6000fd5b505050506040513d60208110156114c957600080fd5b810190808051906020019092919050505010151515611550576040517f08c379a00000000000000000000000000000000000000000000000000000000081526004018080602001828103825260128152602001807f6e6f7420656e6f7567682062616c616e6365000000000000000000000000000081525060200191505060405180910390fd5b82600860003373ffffffffffffffffffffffffffffffffffffffff1673ffffffffffffffffffffffffffffffffffffffff1681526020019081526020016000206000868152602001908152602001600020541115156115ae57600080fd5b600160009054906101000a900473ffffffffffffffffffffffffffffffffffffffff1673ffffffffffffffffffffffffffffffffffffffff1663095ea7b330856040518363ffffffff167c0100000000000000000000000000000000000000000000000000000000028152600401808373ffffffffffffffffffffffffffffffffffffffff1673ffffffffffffffffffffffffffffffffffffffff16815260200182815260200192505050602060405180830381600087803b15801561167357600080fd5b505af1158015611687573d6000803e3d6000fd5b505050506040513d602081101561169d57600080fd5b810190808051906020019092919050505050600160009054906101000a900473ffffffffffffffffffffffffffffffffffffffff1673ffffffffffffffffffffffffffffffffffffffff166323b872dd3330866040518463ffffffff167c0100000000000000000000000000000000000000000000000000000000028152600401808473ffffffffffffffffffffffffffffffffffffffff1673ffffffffffffffffffffffffffffffffffffffff1681526020018373ffffffffffffffffffffffffffffffffffffffff1673ffffffffffffffffffffffffffffffffffffffff1681526020018281526020019350505050602060405180830381600087803b1580156117a857600080fd5b505af11580156117bc573d6000803e3d6000fd5b505050506040513d60208110156117d257600080fd5b81019080805190602001909291905050505082600860003373ffffffffffffffffffffffffffffffffffffffff1673ffffffffffffffffffffffffffffffffffffffff1681526020019081526020016000206000868152602001908152602001600020819055503373ffffffffffffffffffffffffffffffffffffffff16847f25503b4fa67c48e494bd01a58de80d35d064c1797891f4af928672a8f5ee0634856040518082815260200191505060405180910390a35092915050565b6000809054906101000a900473ffffffffffffffffffffffffffffffffffffffff1673ffffffffffffffffffffffffffffffffffffffff163373ffffffffffffffffffffffffffffffffffffffff16141515611979576040517f08c379a00000000000000000000000000000000000000000000000000000000081526004018080602001828103825260218152602001807f6f6e6c792061646d696e2063616e20656e642074686520746f6b656e2073616c81526020017f650000000000000000000000000000000000000000000000000000000000000081525060400191505060405180910390fd5b600160009054906101000a900473ffffffffffffffffffffffffffffffffffffffff1673ffffffffffffffffffffffffffffffffffffffff1663a9059cbb6000809054906101000a900473ffffffffffffffffffffffffffffffffffffffff16600160009054906101000a900473ffffffffffffffffffffffffffffffffffffffff1673ffffffffffffffffffffffffffffffffffffffff166370a08231306040518263ffffffff167c0100000000000000000000000000000000000000000000000000000000028152600401808273ffffffffffffffffffffffffffffffffffffffff1673ffffffffffffffffffffffffffffffffffffffff16815260200191505060206040518083038186803b158015611a9457600080fd5b505afa158015611aa8573d6000803e3d6000fd5b505050506040513d6020811015611abe57600080fd5b81019080805190602001909291905050506040518363ffffffff167c0100000000000000000000000000000000000000000000000000000000028152600401808373ffffffffffffffffffffffffffffffffffffffff1673ffffffffffffffffffffffffffffffffffffffff16815260200182815260200192505050602060405180830381600087803b158015611b5457600080fd5b505af1158015611b68573d6000803e3d6000fd5b505050506040513d6020811015611b7e57600080fd5b81019080805190602001909291905050501515611c03576040517f08c379a00000000000000000000000000000000000000000000000000000000081526004018080602001828103825260188152602001807f62616c616e6365206e6f74207472616e7366657272696e67000000000000000081525060200191505060405180910390fd5b3373ffffffffffffffffffffffffffffffffffffffff16ff5b60035481565b600160009054906101000a900473ffffffffffffffffffffffffffffffffffffffff1681565b60076020528060005260406000206000915090508060000154908060010154908060020160009054906101000a900463ffffffff1690806003015490806004018054600181600116156101000203166002900480601f016020809104026020016040519081016040528092919081815260200182805460018160011615610100020316600290048015611d1c5780601f10611cf157610100808354040283529160200191611d1c565b820191906000526020600020905b815481529060010190602001808311611cff57829003601f168201915b5050505050908060050160009054906101000a900460ff16908060050160019054906101000a900463ffffffff16905087565b60056020528060005260406000206000915090508060000154908060010154908060020160009054906101000a900463ffffffff1690806003015490806004018054600181600116156101000203166002900480601f016020809104026020016040519081016040528092919081815260200182805460018160011615610100020316600290048015611e235780601f10611df857610100808354040283529160200191611e23565b820191906000526020600020905b815481529060010190602001808311611e0657829003601f168201915b5050505050908060050160009054906101000a900460ff16908060050160019054906101000a900463ffffffff16905087565b60606009805480602002602001604051908101604052809291908181526020018280548015611eda57602002820191906000526020600020905b8160009054906101000a900473ffffffffffffffffffffffffffffffffffffffff1673ffffffffffffffffffffffffffffffffffffffff1681526020019060010190808311611e90575b5050505050905090565b60025481565b60006060600460008473ffffffffffffffffffffffffffffffffffffffff1673ffffffffffffffffffffffffffffffffffffffff16815260200190815260200160002060000154600460008573ffffffffffffffffffffffffffffffffffffffff1673ffffffffffffffffffffffffffffffffffffffff168152602001908152602001600020600101808054600181600116156101000203166002900480601f0160208091040260200160405190810160405280929190818152602001828054600181600116156101000203166002900480156120085780601f10611fdd57610100808354040283529160200191612008565b820191906000526020600020905b815481529060010190602001808311611feb57829003601f168201915b5050505050905091509150915091565b60008060009054906101000a900473ffffffffffffffffffffffffffffffffffffffff1673ffffffffffffffffffffffffffffffffffffffff163373ffffffffffffffffffffffffffffffffffffffff161415156120de576040517f08c379a000000000000000000000000000000000000000000000000000000000815260040180806020018281038252600c8152602001807f6e6f7420616e2061646d696e000000000000000000000000000000000000000081525060200191505060405180910390fd5b83600460008273ffffffffffffffffffffffffffffffffffffffff1673ffffffffffffffffffffffffffffffffffffffff16815260200190815260200160002060020160009054906101000a900460ff1615156121a3576040517f08c379a00000000000000000000000000000000000000000000000000000000081526004018080602001828103825260158152602001807f73656c6c6572206e6f742072656769737465726564000000000000000000000081525060200191505060405180910390fd5b83600460008773ffffffffffffffffffffffffffffffffffffffff1673ffffffffffffffffffffffffffffffffffffffff16815260200190815260200160002060010190805190602001906121f9929190612486565b5082600460008773ffffffffffffffffffffffffffffffffffffffff1673ffffffffffffffffffffffffffffffffffffffff168152602001908152602001600020600001819055506001600460008773ffffffffffffffffffffffffffffffffffffffff1673ffffffffffffffffffffffffffffffffffffffff16815260200190815260200160002060020160006101000a81548160ff021916908315150217905550600160098690806001815401808255809150509060018203906000526020600020016000909192909190916101000a81548173ffffffffffffffffffffffffffffffffffffffff021916908373ffffffffffffffffffffffffffffffffffffffff160217905550505060019150509392505050565b600a8181548110151561232057fe5b90600052602060002090600602016000915090508060000154908060010154908060020160009054906101000a900463ffffffff1690806003015490806004018054600181600116156101000203166002900480601f0160208091040260200160405190810160405280929190818152602001828054600181600116156101000203166002900480156123f45780601f106123c9576101008083540402835291602001916123f4565b820191906000526020600020905b8154815290600101906020018083116123d757829003601f168201915b5050505050908060050160009054906101000a900460ff16908060050160019054906101000a900463ffffffff16905087565b60008083141561243a576000905061245f565b6000828402905082848281151561244d57fe5b0414151561245a57600080fd5b809150505b92915050565b600080828401905083811015151561247c57600080fd5b8091505092915050565b828054600181600116156101000203166002900490600052602060002090601f016020900481019282601f106124c757805160ff19168380011785556124f5565b828001600101855582156124f5579182015b828111156124f45782518255916020019190600101906124d9565b5b50905061250291906125d2565b5090565b60e0604051908101604052806000815260200160008152602001600063ffffffff1681526020016000815260200160608152602001600015158152602001600063ffffffff1681525090565b828054600181600116156101000203166002900490600052602060002090601f016020900481019282601f1061259357805160ff19168380011785556125c1565b828001600101855582156125c1579182015b828111156125c05782518255916020019190600101906125a5565b5b5090506125ce91906125d2565b5090565b6125f491905b808211156125f05760008160009055506001016125d8565b5090565b9056fea165627a7a723058206d810f9a94761e3e8bb2c9381263882a8629a84ec23fd32442b6e83a2f58e8bb0029",
  "source": "// BiddingContract: Takes care of all the bidding business logic and admin related permissions\n \npragma solidity >=0.4.21 <0.6.0;\n\n// import the ASS token\nimport \"./AucSters.sol\";\n\n// SafeMath for Ops Utils\nimport \"../libraries/SafeMath.sol\";\n\ncontract BiddingContract {\n\n    using SafeMath for uint; \n\n    address admin;\n    AucSters public tokenContract;\n    uint256 public tokenPrice;\n    uint256 public tokensSold;\n\n    //structs\n    struct Seller {\n        uint256 sellerId;\n        string sellerName;\n        bool isValidSeller;\n    }\n\n    struct Product {\n        uint productId;\n        uint bidStartPrice;\n        uint32 bidStartTime;\n        uint latestBidPrice;\n        string productName;\n        bool isAvailable;\n        uint32 bidSession;\n\n    }\n\n    //seller-mappings\n    mapping(address => Seller) registeredSeller;\n\n    // ** product-mappings : a registered seller has multiple products\n    \n    // for getting all the products of a perticular seller\n    mapping(address => Product) public products;\n\n    //lookup for the owner of product with productId\n    mapping(uint => address) public productIdToOwner;\n\n    //get product details with specific productId\n    mapping(uint => Product) public product;\n\n    //latest bid tracker\n    mapping(address => mapping(uint => uint)) latestBidStore;\n\n\n    //ARRAYS\n    address[] public regSellers;\n    Product[] public productsForSale;\n\n\n    // modifiers\n    modifier onlyOwner() {\n        require(msg.sender == admin, \"not an admin\");\n        _;\n    }\n\n    modifier isRegisteredSeller(address _seller) {\n        require(registeredSeller[_seller].isValidSeller,\"seller not registered\");\n        _;\n    }\n\n    modifier inSession(uint256 _productId){\n        require(now < product[_productId].bidSession + product[_productId].bidStartTime, \"Timeout occured for the product\");\n        _;\n    }\n    //events\n    event TokenSold(address indexed _customer,\n                    uint _numberOfTokens\n    );\n\n    event ProductSold(uint indexed _productId,\n                address indexed _customer,\n                uint _numberOfTokens\n    );\n\n    event Bidding(uint indexed _productId,\n                address indexed _bidder,\n                uint _numberOfTokens\n    );\n\n\n\n    constructor(AucSters _tokenContract, uint _tokenPrice) public {\n        //Assign an admin\n        admin = msg.sender;\n\n        // token Contract \n        tokenContract = _tokenContract;\n        \n        //Token price\n        tokenPrice = _tokenPrice;\n    }\n\n    function buyTokens(uint256 _numberOfTokens) public payable {\n        uint price = _numberOfTokens.mul(tokenPrice);\n        require(msg.value == price, \"buyer doesn't sent sufficient funds\");\n        require(tokenContract.balanceOf(address(this)) >= _numberOfTokens, \"contract dont have enough balance\");\n        require(tokenContract.transfer(msg.sender, _numberOfTokens), \"cannot transfer the tokens\");\n\n        tokensSold = tokensSold.add(_numberOfTokens);\n\n        emit TokenSold(msg.sender, _numberOfTokens);\n    }\n\n    function endSupply() public {\n        require(msg.sender == admin,\"only admin can end the token sale\");\n        require(tokenContract.transfer(admin, tokenContract.balanceOf(address(this))),\"balance not transferring\");\n\n        selfdestruct(msg.sender);\n    }\n\n    // registration of seller from the admin\n    function registerSeller(address _sellerAddress, string memory _sellerName, uint256 _sellerId) public onlyOwner isRegisteredSeller(_sellerAddress) returns(bool){\n        registeredSeller[_sellerAddress].sellerName = _sellerName;\n        registeredSeller[_sellerAddress].sellerId = _sellerId;\n        registeredSeller[_sellerAddress].isValidSeller = true;\n\n        regSellers.push(_sellerAddress) - 1;\n\n        return true;\n    }\n    // get All sellers\n    function getSellers() public view  returns(address[] memory) {\n        return regSellers;\n    }\n\n    // get description of a registered seller\n    function getSeller(address _address) public view returns(uint, string memory){\n        return( registeredSeller[_address].sellerId, registeredSeller[_address].sellerName);\n    }\n\n    // registered sellers can add products for bidding\n    function addProductForBid(uint _productId, string memory _productName, uint256 _bidStartPrice, uint32 _sessionValue) public isRegisteredSeller(msg.sender) returns(bool){\n        //update the mapping\n        products[msg.sender].productId = _productId;\n        products[msg.sender].productName = _productName;\n        products[msg.sender].bidStartPrice = _bidStartPrice;\n        products[msg.sender].isAvailable = true;\n        products[msg.sender].bidStartTime = uint32(now);\n        products[msg.sender].bidSession = _sessionValue; // in seconds\n\n\n\n        // update the product mapping\n        product[_productId].productName = _productName;\n        product[_productId].bidStartPrice = _bidStartPrice;\n        product[_productId].isAvailable = true;\n\n        // Update the all product array\n        Product memory newProduct;\n        newProduct.productId = _productId;\n        newProduct.productName = _productName;\n        newProduct.bidStartPrice = _bidStartPrice;\n        newProduct.isAvailable = true;\n\n\n        productsForSale.push(newProduct) - 1;\n\n        productIdToOwner[_productId] = msg.sender;\n\n        //Initial Bid price is set to the mapping\n        latestBidStore[msg.sender][_productId] = _bidStartPrice;\n\n        return true;\n\n        // emit an product added event\n    }\n\n    // function removeProduct();\n\n        //update productForSale array\n\n\n    // bidding on a certain product\n\n    function Bid(uint _productId, uint _bidValue) inSession(_productId) public returns(bool) { // modifier to check the session is still there\n        // check if msg.sender has enough balance\n        require(tokenContract.balanceOf(msg.sender) >= _bidValue, \"not enough balance\");\n            // check if bid is higher than previous bid event \n        require(latestBidStore[msg.sender][_productId] > _bidValue);\n            //  transfer the token for locking \n        tokenContract.approve(address(this), _bidValue);\n\n        tokenContract.transferFrom(msg.sender, address(this), _bidValue);\n\n            //  update the bid amount : latestBidPrice\n        latestBidStore[msg.sender][_productId] = _bidValue;\n            //  trigger event on every update \n        emit Bidding(_productId,msg.sender, _bidValue);\n    }\n\n    //function finalizeBid()  // on session end\n        // finalize price\n        // add the tokens to the contract and lock it \n        // supplychain triggered, \n        // remove the product\n        // approve the supply chain to ... onSuccess() -> transfer money to the seller\n            //on failure -> refund back to buyer\n\n\n\n    // supply chain and locking \n\n}",
  "sourcePath": "/Users/dibs/Desktop/consensys_doc/proyecto-contract-design-AucAuc/contracts/BiddingContract.sol",
  "compiler": {
    "name": "solc",
    "version": "0.5.0+commit.1d4f565a.Emscripten.clang"
  },
  "schemaVersion": "3.0.1",
  "updatedAt": "2019-01-22T17:02:22.420Z",
  "devdoc": {
    "methods": {}
  },
  "userdoc": {
    "methods": {}
  }
}